:0400000080314528DE
:100008007E1480317908473E86008701230019084D
:1000180081000130F9070030FA3D0A30F000003065
:10002800F10000307106031D1B28473070060319C4
:100038001E281F283A280D30F0000030F10000304B
:100048007106031D29284730700603192C282D280E
:100058003A287A08803AF00080307002031D36286A
:1000680010307902031C39283A284328F901FA018B
:1000780001302000C4000030C50023001D127E108E
:100088000900803147287630840081308500C030EF
:1000980086000030870011308131A7218031F701B7
:1000A800F801F901FA01FB012030840000308500D5
:1000B80040308131AD218031A0308400003085008E
:1000C80020308131AD2180317E10200080316C28B4
:1000D80021008C108D140D110D1422008C1023009A
:1000E8000D118D1020009E019F018B170B17210009
:1000F800911623001D168131872180312000C2010D
:10010800C301E9014308F3004208F2008131932159
:10011800803120006908303E8600870123001308DB
:10012800810001302000C2070030C33D0130E000EB
:100138006008E90711306902031CA328A42886284F
:1001480044034504031DA928AA28052923009E164F
:10015800473081314821803172082000E400C20113
:10016800C301E501E601DA2820004308F30042084C
:10017800F2008131932180312300130881319D21C0
:10018800803105302000E1000F30E000F130890BAC
:10019800CB28E00BCB28E10BCB2801302000C2078D
:1001A8000030C33D0130E5070030E63D6608803A7F
:1001B800803C031DE128650864020318E428E5284B
:1001C800B828200053083C06031DEB28EC28FF281C
:1001D80040084104031DF128F228FA2822008C1453
:1001E80001302000C0000030C100FF2822008C1020
:1001F8002000C001C10123009E121D162000C40169
:10020800C5010D1C08290929A42822008C1447308F
:1002180081314821803173082000E3007208E20030
:10022800C201C301E701E801322920006708473EFF
:10023800860087010108C6004308F3004208F2005F
:100248004608F40081315F21803101302000C20767
:100258000030C33D0130E7070030E83D6308803ACD
:10026800E0006808803A6002031D3C2967086202C2
:1002780003183F294029192922008C102000C401A5
:10028800C501A42880314528F6007608F5005029D4
:100298000130F4007408F607760886008701010823
:1002A800031D572958294C2975087602F200F301D5
:1002B800F21BF303080073082300920072089100F0
:1002C800740893001513951315158B135530960064
:1002D800AA30960095148B1715119518742975294D
:1002E800712908004C3461346E3465344C346934F7
:1002F8006734683474347334303431340A340D3428
:10030800203420340034343023009C0010309B000B
:100318001E121E159F159D179E161D1608007308A0
:1003280023009200720891009513151315141308F1
:100338000800F2002000111EA229A3299E29720894
:1003480023009A000800FE0012001E00FE0BA829D8
:0E0358000034640080010131890BAE290034AD
:020000040001F9
:02000E00E23FCF
:00000001FF
