:0400000080314628DD
:100008007E14803122008C107908203E86008701FA
:100018002300190881000130F9070030FA3D0A3041
:10002800F0000030F10000307106031D1D2820305B
:1000380070060319202821283C280D30F0000030D4
:10004800F10000307106031D2B28203070060319BB
:100058002E282F283C287A08803AF0008030700239
:10006800031D382810307902031C3B283C284428FB
:10007800F901FA010130F7000030F80023001D12E1
:100088007E10090080314828F701F801F901FA01CA
:10009800FB01FC01203084000030850019308031DC
:1000A800C02080317E10200080315A2821008C1019
:1000B8008D140D1122008C1023000D118D102000BD
:1000C8009E019F018B170B172100911623001D1607
:1000D8008031AA20803177037804031D742875289D
:1000E8006F2823009E162030803194208031230011
:1000F8009E122030F5000030F60000307606031D11
:10010800872820307506031D8A288B288D28220011
:100118008C1423001D16F701F8016F28803146283A
:10012800F400A12874088600870101088031B620F0
:1001380080310130F3007308F407740886008701E2
:100148000108031DA828A928962808003430230090
:100158009C0010309B001E121E159F159D179E16A1
:100168001D160800F2002000111EBB28BC28B72865
:10017800720823009A000800640080010131890B8D
:06018800C1280034203400
:020000040001F9
:02000E00E23FCF
:00000001FF
