:0400000080314728DC
:100008007E14803122008C107908243E86008701F6
:100018002300190881000130F9070030FA3D0A3041
:10002800F0000030F10000307106031D1D28243057
:1000380070060319202821283C280D30F0000030D4
:10004800F10000307106031D2B28243070060319B7
:100058002E282F283C287A08803AF0008030700239
:10006800031D382810307902031C3B283C284528FA
:10007800F901FA0101302000A2000030A30023009A
:100088001D127E10090080314928743084008130A7
:1000980085003D30860000308700133081319D2176
:1000A8008031F901FA01FB0120308400003085001D
:1000B8001D308131A32180317E10200080316428D9
:1000C80021008C108D140D1122008C1023000D11AD
:1000D8008D1020009E019F018B170B172100911690
:1000E80023001D168131872180312000220323043B
:1000F800031D7F2880287928243081315D218031B3
:1001080073082000D5007208D4000030BD002130EB
:10011800BE00FF30A000FF30A100C92823009518B9
:1001280096289728922820003E0823009200200055
:100138003D082300910020002008243E8600870106
:100148000108230093003F30F70077089505200049
:1001580003108B1FB028B128B22803148B13230077
:10016800151555309600AA309600951415112000E3
:10017800031CBF28C028C1288B170130BD070030D9
:10018800BE3D0130A0070030A13D5508803AF70078
:100198002108803A7702031DD32820085402031847
:1001A800D628D728922823009E1600302000BD00AC
:1001B8002130BE00D201D301072920003E082300C8
:1001C800920020003D08230091003F30F700770897
:1001D8009505151413088131932180310530F800F5
:1001E8000F30F700F130890BF728F70BF728F80BD9
:1001F800F728000001302000BD070030BE3D013067
:10020800D2070030D33D5508803AF7005308803AAA
:100218007702031D112952085402031814291529BD
:10022800E12823009E122430F2003F308131322130
:10023800803173082000D1007208D00050085104A2
:10024800031D272928292A2922008C1423001D167A
:100258002000A201A301792880314728F5003C2914
:100268000130F4007408F5070130F4007408F2074F
:100278007208860087017508840085010008010658
:10028800031D472948295029750886008701010858
:10029800031D4F29502934297508860087017208E3
:1002A8008400850100080102F200F301031CF30336
:1002B8000800F6007608F50065290130F400740896
:1002C800F6077608860087010108031D6C296D2949
:1002D800612975087602F200F301F21BF3030800A6
:1002E800003421344C3461346E3465344C34693410
:1002F8006734683474347334303431340A340D3428
:10030800203420340034343023009C0010309B000B
:100318001E121E159F159D179E161D160800F20029
:100328002000111E982999299429720823009A00FF
:100338000800FE0012001E00FE0B9E290034640017
:0A03480080010131890BA429003463
:020000040001F9
:02000E00E23FCF
:00000001FF
