:0400000080314928DA
:100008007E14803120003608483E86008701230090
:100018001908810001302000B6070030B73D0A30CA
:10002800F0000030F10000307106031D1D28483033
:1000380070060319202821283C280D30F0000030D4
:10004800F10000307106031D2B2848307006031993
:100058002E282F283C283708803AF000803070027C
:10006800031D382810303602031C3B283C2847283B
:100078002000B601B7010130B4000030B5002300FC
:100088001D1222008C107E10090080314B288A3006
:10009800840082308500D03086000030870011301F
:1000A8008231BB228031FA01203084000030850083
:1000B80038308231C1228031A03084000030850080
:1000C80030308231C12280317E10200080316C288E
:1000D80021008C108D140D110D1422008C1023009A
:1000E8000D118D1020009E019F018B170B17210009
:1000F800911623001D1682319B2280314130F80071
:100108000030F9007908F3007808F2008231A7225C
:100118008031230013082000E9006908031D952891
:100128009628A82810306906031D9B289C28A82813
:1001380020306906031DA128A228A82830306906A6
:100148000319A728A828B528E9014130F80000308C
:10015800F9007908F3007808F200F401823173227B
:10016800803120006908031DBA28BB28BF288231C6
:1001780053228031EF2810306906031DC428C52892
:10018800CC28823153228031823131228031EF28CC
:1001980020306906031DD128D228DC288231532259
:1001A800803182313122803182310F228031EF2833
:1001B80030306906031DE128E228EF2882315322F6
:1001C800803182313122803182310F228031813178
:1001D800ED218031EF28200034033504031DF52874
:1001E800F6286C2923009E160F302000E00000300E
:1001F800E1006908DE00DF015E08F8005F08F90029
:10020800E701E80135297908F3007808F20082311E
:10021800A722803120006708483E86008701010830
:100228008231B122803120006708383E860087017C
:1002380001088231B122803105302000DF000F3003
:10024800DE00F130890B2629DE0B2629DF0B262953
:100258000130F8070030F93D01302000E707003091
:10026800E83D6108803ADE006808803A5E02031DB6
:100278003F296708600203184229432907294830A3
:10028800F2000C30F3000030F40038308131B32133
:100298008031003A03195129522966292000300873
:1002A8003104031D58295929612922008C14013071
:1002B8002000B0000030B100662922008C10200018
:1002C800B001B10123009E121D162000B401B50132
:1002D8000D1C6F297029EF2823001D1622008C148D
:1002E80020006908DE00DF015E08F8005F08F900F9
:1002F80034083504031D81298229EF280F30E200D4
:100308000030E300E501E601A22920006508483E27
:10031800860087010108E4007908F3007808F200F4
:100328006408F4008231732280310130F80700300C
:10033800F93D01302000E5070030E63D6308803ACA
:10034800DE006608803A5E02031DAC296508620279
:100358000318AF29B0298929BB2880314928F5001D
:10036800F601F701DC29763572072000D800580815
:1003780086008701403FD900413FDA00763575078E
:10038800DB005B0886008701403FDC00413FDD0061
:100398005A085D06031DD22959085C060319D52998
:1003A800D629D8290030EC290130F6070030F73D6E
:1003B8007708803A2000D8007408803A5802031D54
:1003C800E72973087602031CEA29EB29B7290130CB
:1003D80008003030F8000030F900F5017908F30022
:1003E8007808F2008231A72281317508A03E860084
:1003F80087012300130881000130F8070030F93D18
:100408000130F4007408F50711307502031C0D2A39
:100418000E2AF22908002030F8000030F900F50112
:100428007908F3007808F2008231A7228231750832
:10043800B03E860087012300130881000130F807C9
:100448000030F93D0130F4007408F50711307502E9
:10045800031C2F2A302A142A08001030F800003014
:10046800F900F5017908F3007808F2008231A72233
:1004780082317508203E8600870123001308810019
:100488000130F8070030F93D0130F4007408F50731
:1004980011307502031C512A522A362A0800F80125
:1004A800F901F5017908F3007808F2008231A722F2
:1004B80082317508383E86008701230013088100C1
:1004C8000130F8070030F93D0130F4007408F507F1
:1004D8000D307502031C712A722A562A0800730807
:1004E8002300920072089100740893001513951365
:1004F80015158B1355309600AA30960095148B1756
:1005080015119518882A892A852A08004C346134DF
:100518006E3465344C3469346734683474347334F5
:10052800303431340A340D3420342034003434303B
:1005380023009C0010309B001E121E159F159D174E
:100548009E161D1608007308230092007208910079
:1005580095131513151413080800F2002000111E36
:10056800B62AB72AB22A720823009A000800FE00A9
:1005780012001E00FE0BBC2A003464008001013109
:06058800890BC22A0034B9
:020000040001F9
:02000E00E23FCF
:00000001FF
